{
  "result": {
    "hash": "000000008de7a25f64f9780b6c894016d2c63716a89f7c9e704ebb7e8377a0c8",
    "confirmations": 174,
    "strippedsize": 20121,
    "size": 34192,
    "weight": 94555,
    "height": 1696761,
    "version": 536870912,
    "versionHex": "20000000",
    "merkleroot": "149381c161de08bd595d808f0e371b995986cfffd35c8f8e9df978608e7efd70",
    "tx": [
      {
        "hex": "010000000001010000000000000000000000000000000000000000000000000000000000000000ffffffff1c03f9e31900000000006266676d696e657220352e352e300002000000ffffffff02dceb2a01000000001976a914f3b40cad194d48398755b45036421b1a645bbdcc88ac0000000000000000266a24aa21a9eda7b385e1d5a75ae006afcf8879edc04e47bc99d012f4c199e4e8517492e1b7220120000000000000000000000000000000000000000000000000000000000000000000000000",
        "txid": "31f8699ce9028e9cd37f8a6d58a79e614a96e3fdd0f58be5fc36d2d95484716f",
        "hash": "c76866806bbb36bc0132ac7f59a4424a40772126fdd45ee4e1e11b3fd337525d",
        "size": 196,
        "vsize": 169,
        "weight": 676,
        "version": 1,
        "locktime": 0,
        "vin": [
          {
            "coinbase": "03f9e31900000000006266676d696e657220352e352e300002000000",
            "sequence": 4294967295,
            "witness": [
              "0000000000000000000000000000000000000000000000000000000000000000"
            ]
          }
        ],
        "vout": [
          {
            "value": 19.590108,
            "n": 0,
            "scriptPubKey": {
              "asm": "OP_DUP OP_HASH160 f3b40cad194d48398755b45036421b1a645bbdcc OP_EQUALVERIFY OP_CHECKSIG",
              "hex": "76a914f3b40cad194d48398755b45036421b1a645bbdcc88ac",
              "reqSigs": 1,
              "type": "pubkeyhash",
              "addresses": ["n3jYBjCzgGNydQwf83Hz6GBzGBhMkKfgL1"]
            }
          },
          {
            "value": 19.590108,
            "n": 1,
            "scriptPubKey": {
              "asm": "OP_DUP OP_HASH160 f3b40cad194d48398755b45036421b1a645bbdcc OP_EQUALVERIFY OP_CHECKSIG",
              "hex": "76a914f3b40cad194d48398755b45036421b1a645bbdcc88ac",
              "reqSigs": 1,
              "type": "pubkeyhash",
              "addresses": ["nfWiQeddE4zsYsDuYhvpgVC7y4gjr5RyqK"]
            }
          },
          {
            "value": 19.590108,
            "n": 2,
            "scriptPubKey": {
              "asm": "OP_DUP OP_HASH160 f3b40cad194d48398755b45036421b1a645bbdcc OP_EQUALVERIFY OP_CHECKSIG",
              "hex": "76a914f3b40cad194d48398755b45036421b1a645bbdcc88ac",
              "reqSigs": 1,
              "type": "pubkeyhash",
              "addresses": ["n3jYBjCzgGNydQwf83Hz6GBzGBhMkKfgL1"]
            }
          },
          {
            "value": 1.5,
            "n": 3,
            "scriptPubKey": {
              "asm": "OP_DUP OP_HASH160 f3b40cad194d48398755b45036421b1a645bbdcc OP_EQUALVERIFY OP_CHECKSIG",
              "hex": "76a914f3b40cad194d48398755b45036421b1a645bbdcc88ac",
              "reqSigs": 1,
              "type": "pubkeyhash",
              "addresses": ["n3jYBjCzgGNydQwf83Hz6GBzGBhMkKfgL1"]
            }
          }
        ],
        "blockhash": "000000008de7a25f64f9780b6c894016d2c63716a89f7c9e704ebb7e8377a0c8",
        "confirmations": 211,
        "time": 1586387793,
        "blocktime": 1586387793
      },
      {
        "hex": "010000000001010000000000000000000000000000000000000000000000000000000000000000ffffffff1c03f9e31900000000006266676d696e657220352e352e300002000000ffffffff02dceb2a01000000001976a914f3b40cad194d48398755b45036421b1a645bbdcc88ac0000000000000000266a24aa21a9eda7b385e1d5a75ae006afcf8879edc04e47bc99d012f4c199e4e8517492e1b7220120000000000000000000000000000000000000000000000000000000000000000000000000",
        "txid": "5b0876dcc027d2f0c671fc250460ee388df39697c3ff082007b6ddd9cb9a7513",
        "hash": "c76866806bbb36bc0132ac7f59a4424a40772126fdd45ee4e1e11b3fd337525d",
        "size": 196,
        "vsize": 169,
        "weight": 676,
        "version": 1,
        "locktime": 0,
        "vin": [
          {
            "coinbase": "",
            "sequence": 4294967295,
            "witness": [
              "0000000000000000000000000000000000000000000000000000000000000000"
            ]
          }
        ],
        "vout": [
          {
            "value": 19.590108,
            "n": 0,
            "scriptPubKey": {
              "asm": "OP_DUP OP_HASH160 f3b40cad194d48398755b45036421b1a645bbdcc OP_EQUALVERIFY OP_CHECKSIG",
              "hex": "76a914f3b40cad194d48398755b45036421b1a645bbdcc88ac",
              "reqSigs": 1,
              "type": "pubkeyhash",
              "addresses": ["n3jYBjCzgGNydQwf83Hz6GBzGBhMkKfgL1"]
            }
          },
          {
            "value": 1.5,
            "n": 1,
            "scriptPubKey": {
              "asm": "OP_DUP OP_HASH160 f3b40cad194d48398755b45036421b1a645bbdcc OP_EQUALVERIFY OP_CHECKSIG",
              "hex": "76a914f3b40cad194d48398755b45036421b1a645bbdcc88ac",
              "reqSigs": 1,
              "type": "pubkeyhash",
              "addresses": ["n3jYBjCzgGNydQwf83Hz6GBzGBhMkKfgL1"]
            }
          }
        ],
        "blockhash": "000000008de7a25f64f9780b6c894016d2c63716a89f7c9e704ebb7e8377a0c8",
        "confirmations": 211,
        "time": 1586387793,
        "blocktime": 1586387793
      },
      {
        "hex": "01000000000101a04fb7cfad15e105e9e71f9bb8f291b5685548962c2a7bdd9461117c9127d26f0100000000ffffffff0237243e0000000000160014a6eac1efcd03d067bdba35845830450901eaafd14aa9430000000000160014d9dabd8962571ab8cf5086e79b588b6d5381b8fe02483045022100aaf3c05a7fc354e5792e76035bd1317085608e50c06cf4a0018610948d8ef06b0220393d9591a3cd23365dfa41b295330a3e2213390f77c5e50b8c545afc94416623012103a5aba47143c1238f4d9ae70b659d6a9ca0ece5ae807de2d260f6f910ab1719c100000000",
        "txid": "54ef2f4679fb90af42e8d963a5d85645d0fd86e5fe8ea4e69dbf2d444cb26528",
        "hash": "40f403dcb5dd94992e1c5fcb3869c84fa3cf6f16772e0d0be89455424cc78857",
        "size": 223,
        "vsize": 141,
        "weight": 562,
        "version": 1,
        "locktime": 0,
        "vin": [
          {
            "txid": "6fd227917c116194dd7b2a2c96485568b591f2b89b1fe7e905e115adcfb74fa0",
            "vout": 1,
            "scriptSig": {
              "asm": "",
              "hex": ""
            },
            "txinwitness": [
              "3045022100aaf3c05a7fc354e5792e76035bd1317085608e50c06cf4a0018610948d8ef06b0220393d9591a3cd23365dfa41b295330a3e2213390f77c5e50b8c545afc9441662301",
              "03a5aba47143c1238f4d9ae70b659d6a9ca0ece5ae807de2d260f6f910ab1719c1"
            ],
            "sequence": 4294967295
          }
        ],
        "vout": [
          {
            "value": 4.072503,
            "n": 0,
            "scriptPubKey": {
              "asm": "0 a6eac1efcd03d067bdba35845830450901eaafd1",
              "hex": "0014a6eac1efcd03d067bdba35845830450901eaafd1",
              "reqSigs": 1,
              "type": "witness_v0_keyhash",
              "addresses": ["n4HynTXRigxZ9vVbEQF3995JJPNPneUe7P"]
            }
          },
          {
            "value": 4.43425,
            "n": 1,
            "scriptPubKey": {
              "asm": "0 d9dabd8962571ab8cf5086e79b588b6d5381b8fe",
              "hex": "0014d9dabd8962571ab8cf5086e79b588b6d5381b8fe",
              "reqSigs": 1,
              "type": "witness_v0_keyhash",
              "addresses": ["n4HynTXRigxZ9vVbEQF3995JJPNPneUe7P"]
            }
          }
        ],
        "blockhash": "29d0a08be36846ee360a372b6ebeecf48a26334aa07c1f298fd0c823b3c26bc5",
        "confirmations": 2,
        "time": 1601447013,
        "blocktime": 1601447013
      },
      {
        "hex": "01000000000101a04fb7cfad15e105e9e71f9bb8f291b5685548962c2a7bdd9461117c9127d26f0100000000ffffffff0237243e0000000000160014a6eac1efcd03d067bdba35845830450901eaafd14aa9430000000000160014d9dabd8962571ab8cf5086e79b588b6d5381b8fe02483045022100aaf3c05a7fc354e5792e76035bd1317085608e50c06cf4a0018610948d8ef06b0220393d9591a3cd23365dfa41b295330a3e2213390f77c5e50b8c545afc94416623012103a5aba47143c1238f4d9ae70b659d6a9ca0ece5ae807de2d260f6f910ab1719c100000000",
        "txid": "54ef2f4679fb90af42e8d963a5d85645d0fd86e5fe8ea4e69dbf2d444cb26528",
        "hash": "40f403dcb5dd94992e1c5fcb3869c84fa3cf6f16772e0d0be89455424cc78857",
        "size": 223,
        "vsize": 141,
        "weight": 562,
        "version": 1,
        "locktime": 0,
        "vin": [
          {
            "txid": "6fd227917c116194dd7b2a2c96485568b591f2b89b1fe7e905e115adcfb74fa0",
            "vout": 1,
            "scriptSig": {
              "asm": "",
              "hex": ""
            },
            "txinwitness": [
              "3045022100aaf3c05a7fc354e5792e76035bd1317085608e50c06cf4a0018610948d8ef06b0220393d9591a3cd23365dfa41b295330a3e2213390f77c5e50b8c545afc9441662301",
              "03a5aba47143c1238f4d9ae70b659d6a9ca0ece5ae807de2d260f6f910ab1719c1"
            ],
            "sequence": 4294967295
          }
        ],
        "vout": [
          {
            "value": 4.072503,
            "n": 0,
            "scriptPubKey": {
              "asm": "0 a6eac1efcd03d067bdba35845830450901eaafd1",
              "hex": "0014a6eac1efcd03d067bdba35845830450901eaafd1",
              "reqSigs": 1,
              "type": "witness_v0_keyhash",
              "addresses": ["nryBkg8193tJnnmmHEug7PcsZPtHFLRnqF"]
            }
          },
          {
            "value": 4.43425,
            "n": 1,
            "scriptPubKey": {
              "asm": "0 d9dabd8962571ab8cf5086e79b588b6d5381b8fe",
              "hex": "0014d9dabd8962571ab8cf5086e79b588b6d5381b8fe",
              "reqSigs": 1,
              "type": "witness_v0_keyhash",
              "addresses": ["nryBkg8193tJnnmmHEug7PcsZPtHFLRnqF"]
            }
          }
        ],
        "blockhash": "29d0a08be36846ee360a372b6ebeecf48a26334aa07c1f298fd0c823b3c26bc5",
        "confirmations": 2,
        "time": 1601447013,
        "blocktime": 1601447013
      },
      {
        "hex": "01000000000101a04fb7cfad15e105e9e71f9bb8f291b5685548962c2a7bdd9461117c9127d26f0100000000ffffffff0237243e0000000000160014a6eac1efcd03d067bdba35845830450901eaafd14aa9430000000000160014d9dabd8962571ab8cf5086e79b588b6d5381b8fe02483045022100aaf3c05a7fc354e5792e76035bd1317085608e50c06cf4a0018610948d8ef06b0220393d9591a3cd23365dfa41b295330a3e2213390f77c5e50b8c545afc94416623012103a5aba47143c1238f4d9ae70b659d6a9ca0ece5ae807de2d260f6f910ab1719c100000000",
        "txid": "54ef2f4679fb90af42e8d963a5d85645d0fd86e5fe8ea4e69dbf2d444cb26528",
        "hash": "40f403dcb5dd94992e1c5fcb3869c84fa3cf6f16772e0d0be89455424cc78857",
        "size": 223,
        "vsize": 141,
        "weight": 562,
        "version": 1,
        "locktime": 0,
        "vin": [
          {
            "txid": "6fd227917c116194dd7b2a2c96485568b591f2b89b1fe7e905e115adcfb74fa0",
            "vout": 1,
            "scriptSig": {
              "asm": "",
              "hex": ""
            },
            "txinwitness": [
              "3045022100aaf3c05a7fc354e5792e76035bd1317085608e50c06cf4a0018610948d8ef06b0220393d9591a3cd23365dfa41b295330a3e2213390f77c5e50b8c545afc9441662301",
              "03a5aba47143c1238f4d9ae70b659d6a9ca0ece5ae807de2d260f6f910ab1719c1"
            ],
            "sequence": 4294967295
          }
        ],
        "vout": [
          {
            "value": 4.072503,
            "n": 0,
            "scriptPubKey": {
              "asm": "0 a6eac1efcd03d067bdba35845830450901eaafd1",
              "hex": "0014a6eac1efcd03d067bdba35845830450901eaafd1",
              "reqSigs": 1,
              "type": "witness_v0_keyhash",
              "addresses": ["D9iqAgaQy1hjPaa7LtqDdEAQo3J84Pb1Qo"]
            }
          },
          {
            "value": 4.43425,
            "n": 1,
            "scriptPubKey": {
              "asm": "0 d9dabd8962571ab8cf5086e79b588b6d5381b8fe",
              "hex": "0014d9dabd8962571ab8cf5086e79b588b6d5381b8fe",
              "reqSigs": 1,
              "type": "witness_v0_keyhash",
              "addresses": ["D9iqAgaQy1hjPaa7LtqDdEAQo3J84Pb1Qo"]
            }
          }
        ],
        "blockhash": "29d0a08be36846ee360a372b6ebeecf48a26334aa07c1f298fd0c823b3c26bc5",
        "confirmations": 2,
        "time": 1601447013,
        "blocktime": 1601447013
      }
    ],
    "time": 1586387793,
    "nonce": 1659564464,
    "bits": "1d00ffff",
    "difficulty": 1,
    "previousblockhash": "00000000e4af3ab0e621ec7336fa567568664e2475167f7bdfdd380d52299b10",
    "nextblockhash": "000000000000004e5b6d357bea0ecf92b5a772e5d3e9f7d19455802a4e845f48"
  },
  "error": null,
  "id": 3
}
